:020000040800F2
:10000000FFFF0020C98E00080D8F00080D8F00082B
:100010000D8F00080D8F00080D8F000800000000F4
:10002000000000000000000000000000D56F000884
:100030000D8F00080000000051700008DD700008FE
:100040000D8F00080D8F00080D8F00080D8F000820
:100050000D8F00080D8F00080D8F00080D8F000810
:100060000D8F00080D8F00080D8F00080D8F000800
:100070000D8F00080D8F00080D8F00080D8F0008F0
:100080000D8F00080D8F00080D8F00080D8F0008E0
:100090000D8F00080D8F00080D8F00080D8F0008D0
:1000A0000D8F00080D8F00080D8F00080D8F0008C0
:1000B000190B00080D8F00080D8F00080D8F000828
:1000C0000D8F00080D8F00080D8F00080D8F0008A0
:1000D0000D8F0008150400080D8F00080D8F000813
:1000E0000D8F00080D8F00080D8F00080D8F000880
:1000F0000D8F00080D8F00080D8F00080D8F000870
:100100000D8F00080D8F00080D8F00080D8F00085F
:100110000D8F00080D8F00080D8F00080D8F00084F
:100120000D8F00080D8F00080D8F00080D8F00083F
:1001300000000000000000000000000000000000BF
:1001400000000000000000000000000000000000AF
:10015000000000000000000000000000000000009F
:10016000000000000000000000000000000000008F
:10017000000000000000000000000000000000007F
:10018000000000000000000000000000000000006F
:10019000000000000000000000000000000000005F
:1001A000000000000000000000000000000000004F
:1001B000000000000000000000000000000000003F
:1001C000000000000000000000000000000000002F
:1001D000000000000000000000000000000000001F
:0401E0005FF8E0F1F3
:1001E80008B545F2555004F05BFA4FF0060004F0EC
:1001F8005DFA40F6354004F05FFA04F063FA04F063
:1002080069FA08BD08B504F05DFA07F04DFC01462F
:1002180040F23823C2F20003186801F0EBFAB0F597
:100228007A7F06D907F040FC40F23823C2F2000377
:10023800186008BD08B54FF4407001F071FB08BDA7
:1002480030B59BB001AD4FF0000029464FF02802B1
:1002580000F05AFE42F66434C2F200044FF4807093
:1002680021464FF0400200F04FFE4FF4407042F636
:100278006031C2F200014FF0030200F045FE48F67B
:100288001070C0F60000294608F0F0FC002843D0A2
:100298004FF0000048F61071C0F600014FF0280238
:1002A80000F07EFE4FF00A0001F04CF94FF001011A
:1002B80021604FF000026260A160E2602161E261AA
:1002C800A162626361612262E162A263A16162620A
:1002D8002163E2634FF4807021464FF0400200F042
:1002E8005FFE4FF00A0001F02DF942F66031C2F2CC
:1002F80000014FF030030B700B684FF47A7262F311
:1003080017230B604FF440704FF0030200F048FED3
:100318004FF00A0001F016F91BB030BD08B500F027
:100328004DF84FF0320000F007FDFFF759FF4FF08E
:1003380001004FF4965100F099FB00F0D1FE00F057
:1003480087FEFFF77DFF42F6AC33C2F200031A784E
:100358006FF302021A7044F61063C2F200034FF002
:1003680000021A7008BD00BF08B5FFF763FFFFF76A
:10037800D5FF4FF0020000F0E3FF07F06BFE4FF0EF
:10038800000008BD08B540F60040C4F201004FF473
:10039800805103F0EDFD40B940F60040C4F2010081
:1003A8004FF4805103F0EEFD07E040F60040C4F240
:1003B80001004FF4805103F0E7FD08BD10B582B08D
:1003C8004FF008004FF0010104F094FB4FF4405344
:1003D800ADF804304FF010038DF807304FF00203EA
:1003E8008DF8063040F60044C4F20104204601A905
:1003F80003F04AFD20464FF4805103F0C3FD204628
:100408004FF4005103F0BEFD02B010BD10B582B02C
:100418004FF00003019343F60000C4F2010040F2DC
:10042800266106F053FA01282FD140F23C23C2F28C
:10043800000318680DF1030101AA06F099FE40B106
:1004480043F60000C4F201009DF8031006F09EF97F
:100458001BE043F60004C4F2010420464FF04001BB
:1004680006F02EFA204640F226614FF0000206F010
:1004780019F920464FF0200106F022FA204640F2F2
:1004880025514FF0010206F00DF943F60000C4F2C1
:10049800010040F2255106F019FA012812D143F65D
:1004A8000000C4F2010006F077F902A901F8050D71
:1004B80040F23C23C2F20003D86801AA4FF00003BF
:1004C80006F084FF019B0BB106F09AFD02B010BD47
:1004D80010B582B0044602AB03F8011D40F23C217E
:1004E800C2F2000151F8200019464FF0000306F04F
:1004F80099FF012818BF00200DD148F63873C0F6BF
:10050800000353F8240040F227714FF0010206F06F
:10051800C9F84FF0010002B010BD00BF2DE9F04747
:1005280081460D469046012814D143F60004C4F2D2
:100538000104204640F225514FF0000206F0B2F8BF
:1005480020464FF0400106F0BBF92046297806F016
:100558001DF930E0022814D144F20044C4F200042A
:10056800204640F225514FF0000206F09BF8204645
:100578004FF0400106F0A4F92046297806F006F964
:1005880019E0032844D144F60000C4F2000040F208
:1005980025514FF0000206F085F839E044F60004D2
:1005A800C4F2000420464FF0400106F089F92046C5
:1005B800297806F0EBF818F1FF3817D005F1010497
:1005C8004FF0000640F23C27C2F2000709F1FF3560
:1005D800B24657F8250021465246534606F022FFF8
:1005E80004F1010406F101064645F2D348F63873D2
:1005F800C0F6000309F1FF3953F8290040F22661DB
:100608004FF0010206F04EF84FF00100BDE8F08708
:10061800B9F1030FCFD1C1E72DE9F84F05468A4656
:1006280090460228C8BF002034DC2AB34FF00004EB
:1006380040F23C27C2F200074FF00506A14648F6F3
:10064800387BC0F6000B57F8250004EB0A01324648
:100658004B4606F0E7FE01280AD05BF8250040F279
:1006680027714FF0010206F01DF8304607F086FBAF
:1006780004F10104A045E6D848F63873C0F6000333
:1006880053F8250040F227714FF0010206F00AF8EE
:100698004FF00100BDE8F88F08B50228C8BF002058
:1006A8000EDC40F23C23C2F2000303EB8000C0687A
:1006B8004FF0000306F0C6FD012814BF00200120FA
:1006C80008BD00BF2DE9F8450D4600F1FF3640F2A0
:1006D8003C23C2F2000303EB8603D8684FF00A02FA
:1006E8004FF0000306F0AEFD002836D02B787B2BA8
:1006F80033D105F1010540F23C23C2F2000303EBBC
:100708008603D86829464FF00A024FF0000306F026
:1007180099FD10B395F800A0AAF1020ABAF1000FEA
:100728001EDD05F101054FF0000440F23C23C2F242
:10073800000303EB86064FF00A07A046F068294637
:100748003A46434606F07EFD38B104F10104E4B2AE
:10075800544505DA05F10105F0E74FF0000001E026
:100768004FF00100BDE8F88508B54FF004004FF0E0
:10077800010104F0BFF94FF480404FF0010104F08B
:10078800B9F908BD08B54FF010004FF0010104F0A9
:10079800B1F94FF00100014604F0ACF94FF48020A4
:1007A8004FF0010104F0BAF908BD00BF08B54FF0D9
:1007B80020004FF0010104F09DF94FF001000146BF
:1007C80004F098F94FF400304FF0010104F0A6F955
:1007D80008BD00BF30B583B04FF48063ADF8043076
:1007E8004FF004038DF8073040F60004C4F201040A
:1007F8000DEB03052046294603F046FB4FF4007332
:10080800ADF804304FF003038DF806304FF01803AD
:100818008DF807302046294603F036FB03B030BD7B
:1008280030B583B04FF40063ADF804304FF00403E3
:100838008DF8073041F20004C4F201040DEB030502
:100848002046294603F020FB4FF48063ADF80430BE
:100858004FF003038DF806304FF018038DF807307A
:100868002046294603F010FB40F21000C0F21400A5
:100878004FF0010103F0B4FB03B030BD30B583B0D5
:100888004FF04003ADF804304FF004038DF8073003
:1008980041F20044C4F201040DEB03052046294649
:1008A80003F0F2FA4FF02003ADF804304FF00303E1
:1008B8008DF806304FF018038DF80730204629468A
:1008C80003F0E2FA4FF008004FF0010103F088FB53
:1008D80003B030BD70B586B002904FF48052ADF8C9
:1008E8000C204FF00005ADF80E50ADF81050ADF8E3
:1008F80014504FF00C02ADF812204FF00F028DF893
:1009080005208DF806504FF001068DF8076044F673
:100918000004C4F20004204602A906F00FF820469D
:1009280040F225512A4605F0BDFE204640F22661D8
:100938002A4605F0B7FE06A84FF0270300F8143D35
:1009480000F0F8FF2046314605F09CFE20464FF0A7
:10095800400105F0B5FF06B070BD00BF70B586B0A8
:1009680002904FF48052ADF80C204FF00005ADF81E
:100978000E504FF48062ADF81020ADF814504FF0CF
:100988000C02ADF812204FF00F028DF805208DF8FB
:1009980006504FF001068DF8076044F20044C4F297
:1009A8000004204602A905F0C9FF204640F225515F
:1009B8002A4605F077FE204640F226612A4605F0D1
:1009C80071FE06A84FF0260300F8143D00F0B2FFB0
:1009D8002046314605F056FE20464FF0400105F00E
:1009E8006FFF06B070BD00BF30B587B002904FF002
:1009F80000031D46ADF80C30ADF80E30ADF81030E0
:100A0800ADF814304FF00C03ADF8123043F6000483
:100A1800C4F20104204602A905F090FF4FF0250317
:100A28008DF804304FF00F038DF805308DF806501F
:100A38004FF001058DF8075001A800F07BFF204614
:100A480040F225512A4605F02DFE204640F2266147
:100A58002A4605F027FE2046294605F013FE2046C3
:100A68004FF0400105F02CFF07B030BDF8B5044643
:100A78000E46022846D8002844D000F1FF374FF42C
:100A8800FA604FF0010106F069FD40F23C25C2F220
:100A9800000545F827004FF064004FF0010106F00B
:100AA8005DFD05EB8705E860012C13D1FFF75CFEBF
:100AB800FFF790FE3046FFF797FF43F60000C4F2B9
:100AC800010040F225514FF0010205F0EBFD4FF017
:100AD800010019E0022C09D1FFF768FEFFF7CEFEEE
:100AE8003046FFF73BFF4FF001000DE0032C09D122
:100AF800FFF748FEFFF794FE3046FFF7EBFE4FF096
:100B0800010001E04FF00000F8BD00BF0000000048
:100B180070B54FF080404FF0010105F031FA01281F
:100B280020D14FF080404FF0010105F035FA40F236
:100B38005423C2F200031A8802F1010292B21A8009
:100B48001B889BB2012B0DD140F25423C2F2000343
:100B58005B889BB2012B9FBF40F25423C2F2000373
:100B680000221A804FF080404FF0020105F008FA89
:100B7800012840F093804FF080404FF0020105F0CB
:100B88000BFA40F25423C2F200035A8802F1010220
:100B980092B25A805B889BB2012B0AD14FF00002B7
:100BA8004FF080439A8440F25423C2F200031A8023
:100BB80074E040F25424C2F200046688B6B2258874
:100BC800ADB24FF0804005F0B7F900EB054043F6B1
:100BD800E043C2F2000343F82600628892B240F272
:100BE800EA339A425AD163889BB243F6E044C2F290
:100BF800000454F82320A3683BA1D1E90001C3EB0A
:100C080002024FF0000307F04FFA42F6A433C2F293
:100C180000031A7818705A784FEA10225A709A7896
:100C28004FEA10429A70DA784FEA1060D87042F6AC
:100C3800B033C2F200039868A268E1689B68C2EB0F
:100C48000002C3EB01039A4210D242F6A433C2F267
:100C580000031A794FF000024FF001011971597918
:100C68005A7199799A71D979DA710FE042F6A433F9
:100C7800C2F200031A794FF000024FF00201197115
:100C880059795A7199799A71D979DA7140F254235C
:100C9800C2F200034FF000021A805A804FF08040E1
:100CA8004FF0040105F06CF9012819D14FF080408C
:100CB8004FF0040105F070F940F25423C2F200032A
:100CC8005C88A4B21D88ADB24FF0804005F038F9B9
:100CD80000EB054042F6B033C2F2000343F82400AB
:100CE80070BD00BFAFF300800060D71D1400000086
:100CF80008B54FF00100014603F010FF4FF0040063
:100D08004FF0010103F0F6FE08BD00BF00B583B047
:100D18004FF00303ADF804304FF004028DF80720BC
:100D28008DF8063040F60000C4F201000DEB020118
:100D380003F0AAF803B000BD2DE9F04589B0FFF72C
:100D4800D7FFFFF7E3FF4FF0804005F02DFB4FF092
:100D5800FF33ADF818304FF00004A046ADF814404A
:100D6800ADF81A40ADF816404FF0804005A904F0E0
:100D780057FBADF80840ADF80A404FF00105AA4608
:100D8800ADF80C50ADF80E40ADF8104002AE4FF083
:100D98008040314605F01CFA4FF00407ADF80870A2
:100DA800ADF80A40ADF80C50ADF80E40ADF8104063
:100DB8004FF08040314605F00BFA4FF01C038DF8D8
:100DC80004304FF00F038DF805308DF806408DF88C
:100DD80007500DEB070000F0ADFD4FF080402946AD
:100DE80004F072FD4FF080404FF002012A4604F0F3
:100DF8008FFD4FF0804039462A4604F089FD4FF0B8
:100E0800804029462A4604F083FD09B0BDE8F085F4
:100E180070B401464FF00002104640F60003C4F2D9
:100E280001034FF020044FF080065C6111F0800F41
:100E380014BF1E615E61BFF34F8F00BF00BF00BFCC
:100E480000BF1C614FEA4000C0B29D68C5F3801C1A
:100E580040EA0C00BFF34F8F00BF00BF00BF00BFC8
:100E680002F10102082A03D04FEA4101C9B2DCE7C6
:100E780040F60003C4F201034FF020025A61BFF3A9
:100E88004F8F00BF00BF00BF00BF70BC704700BFDE
:100E9800F8B540F60043C4F201034FF004025A616A
:100EA800BFF34F8F00BF00BF00BF00BF4FF000046B
:100EB8004FF0D7054FF0FF064FF6FE772846FFF7AD
:100EC800A7FF3046FFF7A4FFBFF34F8F00BF00BF57
:100ED80000BF00BF04F101044FEAD010BC428CBF30
:100EE800002000F001000028E8D140F60043C4F2D9
:100EF80001034FF004021A61BFF34F8F00BF00BF18
:100F080000BF00BFF8BD00BFF8B504460E46154641
:100F180040F60043C4F201034FF004025A61BFF3E4
:100F28004F8F00BF00BF00BF00BF4FF0E800FFF7C2
:100F38006FFFC4F30740FFF76BFFC4F30720FFF709
:100F480067FFE0B2FFF764FF4FF0FF00FFF760FFB5
:100F58004FF0FF00FFF75CFF4FF0FF00FFF758FF6F
:100F68004FF0FF00FFF754FF5DB14FF000044FF062
:100F7800FF073846FFF74CFF305504F10104A5423E
:100F8800F7D840F60043C4F201034FF004021A6197
:100F9800BFF34F8F00BF00BF00BF00BFF8BD00BF49
:100FA800F8B507460E46154640F60043C4F201035D
:100FB8004FF004025A61BFF34F8F00BF00BF00BF5C
:100FC80000BF4FF08400FFF723FF4FF00000FFF74A
:100FD8001FFF4FF00000FFF71BFF4FF00000FFF767
:100FE80017FF45B14FF00004305DFFF711FF04F122
:100FF8000104AC42F8D340F60044C4F201044FF0B7
:1010080004052561BFF34F8F00BF00BF00BF00BFBD
:10101800FFF73EFF6561BFF34F8F00BF00BF00BF02
:1010280000BF4FF08300FFF7F3FEC7F30740FFF759
:10103800EFFEC7F30720FFF7EBFEF8B2FFF7E8FE75
:101048002561BFF34F8F00BF00BF00BF00BFF8BDD1
:1010580038B540F60044C4F201044FF00405656158
:10106800BFF34F8F00BF00BF00BF00BF4FF03D0070
:10107800FFF7CEFE4FF02A00FFF7CAFE4FF08000C0
:10108800FFF7C6FE4FF0A600FFF7C2FE2561BFF3CB
:101098004F8F00BF00BF00BF00BFFFF7F9FE6561BB
:1010A800BFF34F8F00BF00BF00BF00BF4FF03D0030
:1010B800FFF7AEFE4FF02A00FFF7AAFE4FF07F00C1
:1010C800FFF7A6FE4FF09A00FFF7A2FE2561BFF3D7
:1010D8004F8F00BF00BF00BF00BFFFF7D9FE38BD6C
:1010E80008B54FF00C004FF0010103F003FD08BDF7
:1010F80003460A4611B94FF000000AE04FF000001D
:10110800014613F801C06044C0B201F101018A42EE
:10111800F7D8704738B50546044614F8011F20462D
:10112800A1F10301FFF7E4FF237803EB050212F8AE
:10113800022C824231D103EB050111F8012C7D2AE2
:101148002BD1EA7812B9062B0AD123E0012A02D161
:10115800062B0AD11EE0022A02D1062B0CD119E077
:10116800032A02D1062B0ED114E0052A04D1062B3E
:1011780014BF0020012012E0042A04D1092B14BF57
:10118800002001200BE0072A07D1062B14BF0020FE
:10119800012004E04FF0010001E04FF0000038BDED
:1011A80070B50C4616464FF07B030B700D464FF09A
:1011B800070305F8013F4FF000038B70C378CB702D
:1011C80042F6AC33C2F200031B780B71297828462B
:1011D800A1F10301FFF78CFF60714FF07D03A3714C
:1011E8002B78336070BD00BF70B50C4616464FF0C3
:1011F8007B030B700D464FF00E0305F8013F4FF0CF
:1012080000038B70C378CB7042F6A433C2F200039C
:101218001A780A715A784A719A788A71DA78CA7192
:101228001A790A725A794A729A798A72DB79CB7278
:1012380029782846A1F10301FFF75AFF20734FF0E0
:101248007D0363732B78336070BD00BF70B50C46A7
:1012580016464FF07B030B700D464FF01E0305F842
:10126800013F4FF000038B70C378CB7043F6E04327
:10127800C2F200039A680A719A684FEA12224A7108
:101288009A684FEA12428A719A684FEA1262CA71E2
:10129800DA680A72DA684FEA12224A72DA684FEAA2
:1012A80012428A72DA684FEA1262CA721A690A73BB
:1012B8001A694FEA12224A731A694FEA12428A736C
:1012C8001B694FEA1363CB7342F6B033C2F20003D3
:1012D8009A680A749A684FEA12224A749A684FEA1E
:1012E80012428A749A684FEA1262CA74DA680A75F6
:1012F800DA684FEA12224A75DA684FEA12428A75AA
:10130800DA684FEA1262CA751A690A761A694FEAE8
:1013180012224A761A694FEA12428A761B694FEA04
:101328001363CB7629782846A1F10301FFF7E0FE85
:1013380020774FF07D0363772B78336070BD00BF53
:1013480000B585B000904FF000030193029303931A
:1013580041F20D50C0F6000048F64871C0F6000191
:101368004FF4007206F07EFD05B000BD08B54FF0E1
:10137800010048F61071C0F600014FF02802FFF78F
:10138800CDF808BDF8B50C4617464FF07B030B7037
:101398000E464FF0490306F8013F4FF000038B70EB
:1013A800C378CB7001F1040042F66431C2F2000147
:1013B8004FF0400207F028FB04F1440042F6603188
:1013C800C2F200014FF0030207F01EFB35783046E9
:1013D800A5F10301FFF78CFE254405F8020C3378CC
:1013E8001C444FF07D0304F8013C33783B60F8BDA2
:1013F80038B51D4670B942F6AC33C2F2000318780E
:101408004FF0010C6CF302001870187840F00800D7
:1014180018700DE001280BD142F6AC33C2F200037C
:1014280018786FF30200187018786FF3C3001870FB
:101438000C46104614F8012F07F0E6FA23782B60C3
:1014480038BD00BF2DE9F04105460F46904642F6EB
:101458006034C2F200044FF00306204605F104018F
:10146800324607F0D1FA4FF4407021463246FFF772
:1014780097FD384629466A7807F0C6FA7B78C8F897
:101488000030BDE8F08100BF10B582B003460C46BD
:10149800C278072A2DD8DFE802F0040C1419231E9D
:1014A8002C284FF000001946224601ABFFF7A0FF99
:1014B8001FE04FF001001946224601ABFFF798FFE5
:1014C80017E0214601AAFFF76BFE12E0214601AAA8
:1014D800FFF78AFE0DE0214601AAFFF7B7FE08E0F4
:1014E800214601AAFFF7AEFF03E0214601AAFFF754
:1014F80049FF4FF001002146019AFFF70FF802B0AB
:1015080010BD00BFF0B5C1B044F61064C2F20004CB
:101518004FF0010533AE01AF237813B92570FFF7FB
:1015280025FF28463146FFF7CDF80128F4D130468B
:101538003946FFF7EFFD0128EED130463946FFF76F
:10154800A3FFE9E710B483B04FF000030193019BB8
:10155800984215D94FF0000441F25B720094009B49
:10156800934206D8009B03F101030093009B93422A
:10157800F8D9019B03F101030193019B8342EDD349
:1015880003B010BC704700BF82B04FF00003ADF845
:101598000630BDF806309BB2032B0BD8BDF80630D9
:1015A80003F101039BB2ADF80630BDF806309BB2DB
:1015B800032BF3D902B0704782B04FF00003ADF8A7
:1015C8000630BDF806309BB20B2B0BD8BDF80630A1
:1015D80003F101039BB2ADF80630BDF806309BB2AB
:1015E8000B2BF3D902B0704782B04FF00003ADF86F
:1015F8000630BDF806309BB2102B0BD8BDF806306C
:1016080003F101039BB2ADF80630BDF806309BB27A
:10161800102BF3D902B0704782B04FF00003ADF839
:101628000630BDF806309BB2152B0BD8BDF8063036
:1016380003F101039BB2ADF80630BDF806309BB24A
:10164800152BF3D902B0704782B04FF00003ADF804
:101658000630BDF806309BB21D2B0BD8BDF80630FE
:1016680003F101039BB2ADF80630BDF806309BB21A
:101678001D2BF3D902B0704782B04FF00003ADF8CC
:101688000630BDF806309BB2984220D94FF00002D0
:10169800ADF80420BDF804309BB2282B0BD8BDF858
:1016A800043003F101039BB2ADF80430BDF80430F7
:1016B8009BB2282BF3D9BDF8063003F101039BB286
:1016C800ADF80630BDF806309BB28342E0D302B0D5
:1016D800704700BF82B04FF00003ADF80630BDF888
:1016E80006309BB24FEA800083420BDABDF8063021
:1016F80003F101039BB2ADF80630BDF806309BB28A
:101708008342F3DB02B0704730B40B4619B94FF08F
:10171800FF0C654616E04FF000024FF0FF0C6546DF
:1017280040F20004C2F20004815C8CEA010114F862
:1017380001C085EA0C0C214491F8005102F1010224
:101748009A42F1D10CEB052C1FFA8CF030BC704793
:1017580030B40B4619B94FF0FF0C654616E04FF050
:1017680000024FF0FF0C654640F20004C2F200048C
:10177800815C8CEA010114F801C085EA0C0C214453
:1017880091F8005102F101029A42F1D10CEB052CBB
:101798001FFA8CF030BC704700EBD10001F0070154
:1017A8004FF0010303FA01F1037841EA03010170E4
:1017B800704700BF00EBD10001F007014FF00103B3
:1017C80003FA01F1037823EA01010170704700BFB1
:1017D8000028AFBF80B240424004400C704700BFB1
:1017E80010F4004F1EBF20F40040404280B200B207
:1017F800704700BF81422EBFC0EB0100C0434018B4
:10180800704700BF4FF00000704700BF4FF0000066
:10181800704700BF4FF00000704700BF4FF0000056
:10182800704700BF4FF4005353604FF000007047FB
:101838004FF00100704700BF4FF00100704700BF34
:1018480040F25823C2F200031B6843B940F2582300
:10185800C2F2000344F61462C2F200021A6040F2B7
:101868005823C2F20003186801441960704700BF8A
:101878004FF000039847FEE7704700BFEFF3098079
:101888000046704780F30988704700BFEFF308806F
:101898000046704780F30888704700BFEFF3128056
:1018A800704700BF80F31188704700BFEFF31080C6
:1018B800704700BF80F31088704700BFEFF31380B4
:1018C800704700BF80F31388704700BFEFF31480A0
:1018D800704700BF80F31488704700BF00BA704794
:1018E80040BA7047C0BA704790FAA0F0704700BF7E
:1018F800D0E84F0FC0B27047D0E85F0F80B2704792
:1019080050E8000F704700BFC1E8400F704700BFA4
:10191800C1E8500F704700BF41E80000704700BFA2
:1019280040F0BE6040F420204EF60053CEF2000393
:10193800D8607047C3786BB34EF60053CEF20003FD
:10194800DB686FEA0303C3F30223C3F1040241789F
:1019580001FA02F24FF00F0121FA03F3817803EA4A
:10196800010343EA020302784FEA0310C0B24EF2C1
:101978000013CEF2000302EB030181F800034FEAE3
:10198800521102F01F024FF0010000FA02F243F870
:10199800212010E003784FEA531203F01F034FF0A1
:1019A800010101FA03F14EF20013CEF2000302F135
:1019B800200243F82210704721F0604121F07F0196
:1019C80041EA00014EF60053CEF2000399607047D9
:1019D80041B14EF60053CEF200031A6940EA020004
:1019E800186107E04EF60053CEF200031A6922EAA6
:1019F80000001861704700BF042801BF4EF21003B1
:101A0800CEF200031A6842F004020FBF1A604EF2C9
:101A18001003CEF200031A681CBF22F004021A60F9
:101A2800704700BF10B4436823F4702323F4807315
:101A38000A6843EA02030A7943EA02234360846896
:101A48008A68CB6842EA03024FF2FD73CFF6F1735E
:101A580004EA030342EA03034A7943EA4203836040
:101A6800C26A22F470020B7C03F1FF33DBB242EA54
:101A78000353C36210BC70474FF000030360037147
:101A880043718360C3604FF001030374704700BF64
:101A980021B1836843F00103836003E0836823F086
:101AA80001038360704700BF21B1836843F48073EA
:101AB800836003E0836823F480738360704700BF0A
:101AC800C9B222B1436841EA0301416003E04368B7
:101AD80023EA010141607047836843F0080383608B
:101AE800704700BF8068C0F3C0007047836843F048
:101AF80004038360704700BF8068C0F380007047AC
:101B080021B1836843F4A003836003E0836823F46E
:101B1800A0038360704700BF8068C0F3805070479F
:101B2800436823F4604301F1FF3143EA41334360E2
:101B3800704700BF21B1436843F40063436003E08A
:101B4800436823F400634360704700BF30B4092939
:101B580010D9C56801EB410CACF11E0C4FF007041D
:101B680004FA0CF425EA040403FA0CFC44EA0C0316
:101B7800C3600DE0056901EB410C4FF0070404FA5E
:101B88000CF425EA040403FA0CFC44EA0C03036190
:101B9800062A10D8446B02F1FF3202EB82024FF0A2
:101BA8001F0303FA02F324EA030301FA02F143EAEA
:101BB8000102426322E00C2A10D8046B02EB820275
:101BC800A2F123024FF01F0303FA02F324EA0303EE
:101BD80001FA02F143EA010202630FE0C46A02EB70
:101BE8008202A2F141024FF01F0303FA02F324EA32
:101BF800030301FA02F143EA0102C26230BC7047F2
:101C080021B1836843F48013836003E0836823F47D
:101C180080138360704700BFC06C80B2704700BFFC
:101C280042F24C43C4F201031868704721B143687B
:101C380043F48063436003E0436823F480634360B4
:101C4800704700BF21B1436843F48053436003E009
:101C5800436823F480534360704700BF836823F4CC
:101C6800E04341EA03038360704700BF21B1836802
:101C780043F40043836003E0836823F400438360F4
:101C8800704700BF21B1836843F40213836003E007
:101C9800836823F402138360704700BF8068C0F331
:101CA8004050704730B4092910D9C56801EB410C80
:101CB800ACF11E0C4FF0070404FA0CF425EA0404F6
:101CC80003FA0CFC44EA0C03C3600DE0056901EB60
:101CD800410C4FF0070404FA0CF425EA040403FA53
:101CE8000CFC44EA0C030361836BC3F3015CCCEB8B
:101CF800020202F10202D2B202EB82024FF01F0C82
:101D08000CFA02FC23EA0C0301FA02F143EA01038C
:101D1800836330BC704700BF836B23F4401301F129
:101D2800FF3143EA01538363704700BF82B04FF02D
:101D3800000301930190019B0B440193019B1A60DE
:101D480002B0704782B04FF0000301930190019BED
:101D580003F128030B440193019B186880B202B079
:101D6800704700BF436823F4400323F4007341EA3B
:101D780003034360704700BF41628262704700BF3F
:101D8800436823F01F0341EA03034360704700BF21
:101D980040B142F20043C4F201039A6842F40002DF
:101DA8009A6007E042F20043C4F201039A6822F401
:101DB80000029A60704700BF036819420CBF0020F8
:101DC800012070476FEA01010160704742680368AB
:101DD80013EA112308BF002004D0C9B211420CBF76
:101DE80000200120704700BF6FEA11210160704791
:101DF80008B542F20043C4F2010398420CD14FF4F3
:101E080000704FF0010102F09DFE4FF400704FF09A
:101E1800000102F097FE24E042F60003C4F2010339
:101E280098420CD14FF480604FF0010102F08AFE15
:101E38004FF480604FF0000102F084FE11E043F699
:101E48000043C4F2010398420BD14FF400404FF015
:101E5800010102F077FE4FF400404FF0000102F05C
:101E680071FE08BD48F20463C4F20D231860704780
:101E780048F20063C4F20D231860704748F2886383
:101E8800C4F20D231860704746F60042C4F20002FF
:101E9800938D23F460734FEA03434FEA134340EAF8
:101EA80003039385704700BF46F60042C4F2000260
:101EB800938D23F07F034FEA03434FEA134340EA2D
:101EC80003039385704700BF82B04FF0000301936E
:101ED80046F60043C4F200030193019B03440193B7
:101EE800019B196002B0704782B04FF00003019364
:101EF80046F60043C4F200030193019B0344019397
:101F0800019B188880B202B0704700BF48F2A063F6
:101F1800C4F20D231868C0B2704700BF46F60043EC
:101F2800C4F200039A8E92B242F001029A86704778
:101F380048F2A463C4F20D231868C0B2704700BF0A
:101F480046F60043C4F200039A8E92B242F00202AF
:101F58009A86704708B54FF0010002F01BFE4FF05B
:101F6800000002F017FE08BD036823F002030360B7
:101F7800036843F001030360436813F0010F0BD1BA
:101F88004FF000034FF6FF7C426812F0010F03D1B7
:101F980003F101036345F7D1436813F0010F08BF4C
:101FA800002072D08B79012B03BF036843F08003B4
:101FB800036003681CBF23F080030360CB79012B07
:101FC80003BF036843F04003036003681CBF23F0AA
:101FD800400303600B7A012B03BF036843F020031F
:101FE800036003681CBF23F0200303604B7A012BB6
:101FF80003BF036843F01003036003681CBF23F0AA
:10200800100303608B7A012B03BF036843F00803B6
:10201800036003681CBF23F008030360CB7A012B1D
:1020280003BF036843F00403036003681CBF23F085
:1020380004030360CA788B784FEA837343EA026328
:102048000A7943EA02434A7943EA02520B8803F1C8
:10205800FF3342EA0303C361036823F0010303600B
:10206800436813F0010F0BD04FF000034FF6FF71D8
:10207800426812F0010F03D003F101038B42F7D13C
:10208800406880F0010000F00100704730B490F81B
:102098000AC04FF0010101FA0CF146F20043C4F204
:1020A8000003D3F8002242F00102C3F80022D3F85B
:1020B8001C426FEA010202EA0404C3F81C42037BD3
:1020C800CBB946F20043C4F20003D3F80C4202EA4B
:1020D8000404C3F80C42C588448844EA05440CF15A
:1020E800480C43F83C408588048844EA054403EBDF
:1020F800CC035C601AE0012B18D146F20044C4F20C
:102108000004D4F80C3241EA0303C4F80C32058801
:10211800438843EA05430CF1480C44F83C30858871
:10212800C38843EA054304EBCC046360C37A53B91C
:1021380046F20043C4F20003D3F8044202EA04045E
:10214800C3F8044209E046F20043C4F20003D3F89E
:10215800044241EA0404C3F80442038953B946F22D
:102168000043C4F20003D3F8144202EA0402C3F89D
:1021780014220BE0012B01BF46F20043C4F2000316
:10218800D3F814220A4308BFC3F81422437B012B57
:1021980001BF46F20043C4F20003D3F81C221143E6
:1021A80008BFC3F81C1246F20043C4F20003D3F878
:1021B800002222F00102C3F8002230BC704700BFA1
:1021C8004FF000038371C371037243728372C37249
:1021D8008370C3704FF0030303714FF00203437120
:1021E8004FF001030380704746F20043C4F2000336
:1021F800D3F8002242F00102C3F80022D3F80022EB
:1022080022F47C5222F00E02C3F80022D3F80022F6
:1022180042EA0022C3F80022D3F8002222F0010289
:10222800C3F80022704700BF21B1036843F480332C
:10223800036003E0036823F480330360704700BF42
:10224800B1B1036843F080030360D0F8843143F4EC
:102258008073C0F88431D0F8943143F48073C0F8A7
:102268009431D0F8A43143F48073C0F8A43115E058
:10227800036823F080030360D0F8843123F480736B
:10228800C0F88431D0F8943123F48073C0F89431C5
:10229800D0F8A43123F48073C0F8A431704700BF8C
:1022A80070B40346826812F0806F18BF00200DD109
:1022B8009A6812F0006F18BF012007D19A6812F0CF
:1022C800805F08BF042060D04FF00200844600F110
:1022D800180203EB0212146804F0010414600A7A6D
:1022E80062B900F1180203EB021215680E684C7A05
:1022F80044EA465444EA050414600DE000F1180469
:1023080003EB041425684E6842EAC60242EA050255
:102318004D7A42EA050222608A7A02F00F028A7236
:102328000CF1180403EB0414224652F8045F25F05C
:102338000F05156015688E7A46EA050515608A7BD3
:102348004D7B4FEA054545EA0265CA7A45EA02052A
:102358000A7B45EA022503EB0C1303F5C4721560EA
:1023680091F812C04A7C4FEA024242EA0C6291F8A4
:102378000FC042EA0C02097C42EA012203F5C67347
:102388001A60236843F00103236070BC704700BFE4
:1023980001290DD021B1022918BF002317D10FE060
:1023A800826840F20303C0F2004302EA03030EE02E
:1023B800826840F20033C0F6000302EA030306E035
:1023C800826840F20003C1F2030302EA030340F209
:1023D8000302C0F20042934214D001D87BB10BE053
:1023E80040F20032C0F6000293420BD040F20002E5
:1023F800C1F20302934205D04FF0000004E04FF011
:10240800020001E04FF00100704700BF012908D029
:1024180011B102290ED109E0836843F0800383607B
:1024280008E0836843F40043836003E0836843F46F
:1024380000038360704700BF30B40B4601F11B04F2
:1024480000EB0414246804F00404147244B901F184
:102458001B0400EB041424684FEA5454146007E08A
:1024680001F11B0400EB041424684FEAD4045460FF
:1024780003F11B0400EB0414256805F0020C82F834
:1024880009C054F8045F05F00F0C82F80AC02468EC
:102498004FEA142C82F813C000EB031303F5DC7425
:1024A8002568D57225684FEA152C82F80CC0256876
:1024B8004FEA154C82F80DC024684FEA146C82F874
:1024C8000EC003F5DE731C68D4731C684FEA142C25
:1024D80082F810C01C684FEA144C82F811C01B68BF
:1024E8004FEA1363937421B9C36843F02003C360B0
:1024F80003E0036943F02003036130BC704700BF69
:1025080021B9C36843F02003C36003E0036943F0C3
:1025180020030361704700BF19B9C06800F00300C9
:1025280005E0012912BF0020006900F00300704790
:10253800E1B9036823F0030343F001030360436830
:1025480003F00303012B09D04FF6FF73426802F032
:102558000302012A02D013F1FF33F7D1406800F0DB
:102568000300012814BF0020012039E0012917D1F8
:10257800036823F003030360436813F0030F08D0D4
:102588004FF6FF73426812F0030F02D013F1FF33C6
:10259800F8D1436813F0030F14BF002001201FE097
:1025A800022918BF00201BD1036823F0030343F05E
:1025B80002030360436803F00303022B09D04FF6BC
:1025C800FF73426802F00302022A02D013F1FF33BC
:1025D800F7D1406800F00300022814BF0020012052
:1025E800704700BF036823F0030343F0020303604E
:1025F800406800F00300022814BF00200120704743
:10260800036823F002030360436813F0020F08D045
:102618004FF6FF73426812F0020F02D013F1FF3336
:10262800F8D1406880F00200C0F34000704700BF56
:10263800806900F07000704780694FEA1060704749
:102648008069C0F30740704722B1436941EA03013A
:10265800416103E0436923EA01014161704700BF1A
:1026680011F4700F09D0836923F07F4323F47003BA
:102678000B420CBF002001202FE011F0807F09D011
:10268800436823F07F4323F470030B420CBF002000
:10269800012022E011F0006F09D0836823F07F4306
:1026A80023F470030B420CBF0020012015E011F049
:1026B800007F09D0C36823F07F4323F470030B42E3
:1026C8000CBF0020012008E0036923F07F4323F4B6
:1026D80070030B420CBF00200120704740F27003CA
:1026E800C3F2F003994204BF0023836112D021F0A2
:1026F8007F4323F4700311F0007F18BFC36009D132
:1027080011F0806F18BF036104D111F0006F14BF7E
:1027180083604360704700BFB1F5807F04BF042326
:10272800436050D018D8082904BF1023C3604AD08A
:102738000AD8012902BF40F20113C0F201038360E5
:1027480041D004293FD125E0202904BF0823036193
:1027580039D0402937D121E0B1F5006F26D009D80A
:10276800B1F5007F04BF042343602CD0B1F5806F1E
:1027780029D117E0B1F5803F04BF0823436022D078
:10278800B1F5003F04BF102343601CD0B1F5004FE2
:1027980019D112E04FF00803C36014E04FF01003A2
:1027A800036110E04FF0040343600CE04FF00003B6
:1027B80083614FF00403436005E04FF00003836139
:1027C8004FF004034360704701420CBF0020012012
:1027D800704700BF08B5436919427FD040294DD0E2
:1027E8000ED8042932D004D8012921D0022975D164
:1027F80026E0102936D020293AD008296ED12BE0BE
:10280800B1F5006F5ED009D8B1F5007F4ED0B1F5B3
:10281800806F51D0B1F5807F60D141E0B1F5803F44
:1028280032D0B1F5003F35D0B1F5004F56D14FE069
:10283800806840F20111C0F20101FFF7C5FF4FE0C7
:10284800C0684FF00301FFF7BFFF49E0C0684FF0D1
:102858000801FFF7B9FF43E0C0684FF01001FFF728
:10286800B3FF3DE000694FF00301FFF7ADFF37E02C
:1028780000694FF00801FFF7A7FF31E000694FF04A
:102888001001FFF7A1FF2BE040684FF00801FFF7A8
:102898009BFF25E040684FF01001FFF795FF1FE010
:1028A80080694FF00101FFF78FFF19E080694FF051
:1028B8000201FFF789FF13E080694FF00401FFF779
:1028C80083FF0DE080694FF07001FFF77DFF07E09F
:1028D80040684FF00401FFF777FF01E04FF0000078
:1028E80008BD00BF08B546F20043C4F20003984291
:1028F8000CD14FF000704FF0010102F037F94FF0A2
:1029080000704FF0000102F031F90BE04FF08060E9
:102918004FF0010102F02AF94FF080604FF00001FA
:1029280002F024F908BD00BF47F60003C4F2000313
:10293800196801F0F301B0F802C002884CEA0202FB
:1029480041EA020292B21A60704700BF40F20003E7
:10295800C4F20F23186038B947F60002C4F2000227
:10296800136813F0010FFBD1704700BF40F2040356
:10297800C4F20F231860704747F60003C4F200033F
:102988005860704747F60003C4F200039860704728
:1029980047F60003C4F200035861704747F6000386
:1029A800C4F200039869C0B2704700BF40F2002328
:1029B800C4F20F234FF001021A60704740F204235B
:1029C800C4F20F231860704720F07F42000F07BF42
:1029D80047F61003C4F20003120C47F60C0318BFA5
:1029E800C4F200031B6813420CBF0020012070478B
:1029F80047F60003C4F2000319691A696FEA000078
:102A080020F0030001F0020140EA010101EA02029C
:102A18001A61704747F60003C4F200031A681B697D
:102A280018420CBF0020C2F34000704747F600036D
:102A3800C4F2000319691A696FEA000020F0030064
:102A480001F0020140EA010101EA02021A6170473D
:102A580008B54FF080404FF0010102F087F84FF0C1
:102A680080404FF0000102F081F808BD43F20003F6
:102A7800C4F202034FF001029A60704743F2000368
:102A8800C4F2020318601868704700BF10B40B4600
:102A980061B14FF0000243F20004C4F2020450F89E
:102AA8002210216002F101029342F8D843F2000398
:102AB800C4F20203186810BC704700BF43F2000359
:102AC800C4F202031868704743F20003C4F2020319
:102AD8001871704743F20003C4F202031879704773
:102AE80030B447F20043C4F200031C6840F6FE729B
:102AF80002FA00F224EA02024D680C6845EA040C66
:102B08008C684CEA040CCC684CEA040101FA00F029
:102B180042EA0000186030BC704700BF4FF0000365
:102B2800036043608360C360704700BF61B147F2D0
:102B38000043C4F200031A684FF0010101FA00F0E3
:102B480040EA020018600BE047F20043C4F20003B9
:102B58001A684FF0010101FA00F022EA000018603B
:102B6800704700BF61B147F20043C4F200031A681E
:102B78004FF4805101FA00F040EA020018600BE0BF
:102B880047F20043C4F200031A684FF4805101FA77
:102B980000F022EA00001860704700BF71B147F2E8
:102BA8000043C4F200035A684FEA10104FF00101C5
:102BB80001FA00F040EA020058600DE047F20043D5
:102BC800C4F200035A684FEA10104FF0010101FAED
:102BD80000F022EA00005860704700BF40B147F299
:102BE8000043C4F200035A6842F003025A6007E047
:102BF80047F20043C4F200035A6822F003025A6005
:102C0800704700BF52B147F20043C4F200031A688C
:102C180001FA00F141EA0201196009E047F20043B4
:102C2800C4F200031A6801FA00F122EA01011960EE
:102C3800704700BF82B04FF00003019347F2004392
:102C4800C4F200030193019B03F1080303440193B9
:102C5800019B196002B0704782B04FF000030193E6
:102C680047F20043C4F200030193019B03F11403EC
:102C780003440193019B196002B0704708280CBFF8
:102C880042EA012142EA014147F22043C4F200032B
:102C980018440160704700BF82B04FF000030193F1
:102CA80047F20043C4F200030193019B03F12C0394
:102CB80003EB90030193019B186880B202B0704740
:102CC80008B54FF000504FF0010101F04FFF4FF0F1
:102CD80000504FF0000101F049FF08BD42F2000327
:102CE800CEF2040318684FEA1040704742F200031E
:102CF800CEF2040318684FEA00504FEA10507047AC
:102D080041B142F20003CEF204035A6840EA0200DD
:102D1800586007E042F20003CEF204035A6822EA40
:102D280000005860704700BF02684FF6FE73C0F29B
:102D3800000302EA030303604FF0000303604360EB
:102D48008360C36040F20803C4F20203984208D1CA
:102D580040F20003C4F202035A6842F00F025A60BC
:102D6800A4E040F21C03C4F20203984208D140F2E6
:102D78000003C4F202035A6842F0F0025A6095E078
:102D880040F23003C4F20203984208D140F2000333
:102D9800C4F202035A6842F470625A6086E040F254
:102DA8004403C4F20203984208D140F20003C4F27B
:102DB80002035A6842F470425A6077E040F25803BE
:102DC800C4F20203984208D140F20003C4F202039D
:102DD8005A6842F470225A6068E040F26C03C4F208
:102DE8000203984208D140F20003C4F202035A6871
:102DF80042F470025A6059E040F28003C4F20203C0
:102E0800984208D140F20003C4F202035A6842F023
:102E180070625A604AE040F20843C4F202039842E2
:102E280008D140F20043C4F202035A6842F00F028C
:102E38005A603BE040F21C43C4F20203984208D1B6
:102E480040F20043C4F202035A6842F0F0025A60AA
:102E58002CE040F23043C4F20203984208D140F219
:102E68000043C4F202035A6842F470625A601DE0DB
:102E780040F24443C4F20203984208D140F20043AE
:102E8800C4F202035A6842F470425A600EE040F2FB
:102E98005843C4F20203984201BF40F20043C4F20F
:102EA80002035A6842F4702208BF5A60704700BF94
:102EB80010B4036823F4FE4323F0F0030C6A8A6815
:102EC80044EA02020C6942EA04024C6942EA04023A
:102ED8008C6942EA0402CC6942EA04024C6A42EA7A
:102EE80004028C6A42EA040242EA03030360CB68E4
:102EF80043600B6883604B68C36010BC704700BFB9
:102F08004FF00003036043608360C3600361436163
:102F18008361C361036243628362704721B10368BE
:102F280043F00103036007E002684FF6FE73C0F246
:102F3800000302EA03030360704700BF22B103687D
:102F480041EA0301016003E0036823EA010101602B
:102F5800704700BF41607047406880B2704700BF4B
:102F680010F0805F1DBF40F20043C4F202031B68EB
:102F780040F2000304BFC4F202031B6803420CBF03
:102F880000200120704700BF10F0805F1DBF40F295
:102F98000043C4F20203586040F2000304BFC4F2C5
:102FA80002035860704700BF10F0805F1DBF40F2F9
:102FB8000043C4F202031B6840F2000304BFC4F2DA
:102FC80002031B6803420CBF00200120704700BFAA
:102FD80010F0805F1DBF40F20043C4F20203586046
:102FE80040F2000304BFC4F202035860704700BFF8
:102FF80040F20043C4F201034FF000021A605A6025
:103008009A60DA604FF6FF72C0F20F025A61704799
:1030180010B48379002B39D040F20043C4F2010385
:103028001C6801686FEA010202EA04041C605C681B
:1030380002EA04025A6002791A44146844EA010157
:1030480011609C6802686FEA020101EA04049C604E
:10305800DC6801EA0401D960417910290CD140F2F9
:103068000043C4F20103996841EA02019960D968F2
:1030780041EA0202DA6014E040F20043C4F20103BC
:103088000B44196841EA02021A600AE0027940F228
:103098000043C4F2010313441A68016822EA0102DA
:1030A8001A6010BC704700BF4FF000030360037143
:1030B8004FF00C0242718371704700BF40F2004329
:1030C800C4F201031A6940EA02021A61704700BF9C
:1030D80040F20043C4F201035B6918420CBF0020B0
:1030E8000120704740F20043C4F201035861704761
:1030F80040F20043C4F201031A685B69184208BF32
:10310800002003D010420CBF00200120704700BFF0
:1031180040F20043C4F201035861704742F20003D1
:10312800C4F202031A6802F0380240EA02021A6086
:10313800704700BF42F20003C4F202031A6822F08B
:1031480008021A601A6840EA02021A60704700BF53
:1031580042F20003C4F202031A6822F010021A6055
:103168001A6840EA02021A60704700BF42F2000380
:10317800C4F2020340F22312C4F267525A6048F6BE
:10318800AB12CCF6EF525A60704700BF42F2000310
:10319800C4F2020340F22312C4F267525A6048F69E
:1031A800AB12CCF6EF525A60704700BF42F20003F0
:1031B800C4F202031A6942F080021A61704700BF24
:1031C80042F20003C4F202031A6942F080021A6153
:1031D800704700BF42F20003C4F20203D8694FEA05
:1031E8009000704742F20003C4F20203186A704765
:1031F80042F20003C4F20203D869C0F340007047EA
:1032080042F20003C4F202031868C0F3401070478A
:1032180041B142F20003C4F202031A6940EA020013
:10322800186107E042F20003C4F202031A6922EAB5
:1032380000001861704700BF012807D142F200035F
:10324800C4F20203D86900F0010008E042F200036A
:10325800C4F20203DB6818420CBF0020012070474B
:1032680042F20003C4F20203D860704742F200033E
:10327800C4F20203DB6813F0010F18BF012013D159
:1032880042F20003C4F20203DB6813F0040F18BF14
:10329800022009D142F20003C4F20203DB6813F0F2
:1032A800100F14BF03200420704700BF42F2000330
:1032B800C4F20203DB6813F0010F18BF012013D119
:1032C80042F20003C4F20203DB6813F0040F18BFD4
:1032D800022009D142F20003C4F20203DB6813F0B2
:1032E800100F14BF03200420704700BF10B5044618
:1032F800FFF7DCFF231E18BF0123012814BF00239A
:1033080003F001036BB1FFF7D1FF14F1FF340CBFD9
:1033180000230123012814BF002303F00103002B1D
:10332800F1D1002C08BF052010BD00BF70B50546BF
:103338000C46164642F20003C4F2020340F223127E
:10334800C4F267529A6048F6AB12CCF6EF529A6014
:103358004FF40050FFF7CAFF042825D142F20003BA
:10336800C4F202031A6942F010021A6145F0F80526
:1033780044EA050446EA0406B6B24FF60003C1F66D
:10338800FF735E804FF40050FFF7B0FF05280BD0A5
:1033980042F20002C4F20202116941F6EF73C0F270
:1033A800000301EA0303136170BD00BF10B50446B2
:1033B8004FF43020FFF79AFF04285CD142F2000353
:1033C800C4F2020340F22312C4F267529A6048F62C
:1033D800AB12CCF6EF529A601A6942F020021A61D9
:1033E8001A6942F040021A614FF43020FFF77EFF5D
:1033F800042832D142F20003C4F20203196941F6EB
:10340800DF72C0F2000201EA02021A611A6942F090
:1034180010021A613CB14FF60003C1F6FF734FF07A
:1034280000021A8006E04FF60003C1F6FF734FF062
:10343800A5021A804FF43020FFF758FF05281AD04C
:1034480042F20002C4F20202116941F6EF73C0F2BF
:10345800000301EA030313610DE005280BD042F2D3
:103468000002C4F20202116941F6DF73C0F20003E0
:1034780001EA0303136110BD10B504464FF4005070
:10348800FFF734FF04286CD16FEA0404E1B242F27A
:103498000003C4F2020340F22312C4F267529A6096
:1034A80048F6AB12CCF6EF529A601A6942F0100255
:1034B8001A61FF2908D04FF60003C1F6FF7319817E
:1034C8004FF40050FFF712FFC4F30723B3F1FF02D4
:1034D80018BF0122042814BF002202F0010242B1E1
:1034E8004FF60002C1F6FF7253814FF40050FFF708
:1034F800FDFEC4F30743B3F1FF0218BF01220428FD
:1035080014BF002202F0010242B14FF60002C1F6D8
:10351800FF7293814FF40050FFF7E8FE4FEA1464FE
:10352800B4F1FF0318BF0123042814BF002303F0DC
:10353800010343B14FF60003C1F6FF73DC814FF47A
:103548000050FFF7D3FE05280BD042F20002C4F268
:103558000202116941F6EF73C0F2000301EA0303A6
:10356800136110BD38B504460D464FF40050FFF7FF
:10357800BDFE042824D142F20003C4F2020340F243
:103588002312C4F267529A6048F6AB12CCF6EF5297
:103598009A601A6942F010021A6125804FF40050AF
:1035A800FFF7A4FE05280BD042F20002C4F2020283
:1035B800116941F6EF73C0F2000301EA03031361D6
:1035C80038BD00BF70B506460D464FF40050FFF7F2
:1035D8008DFE042814D142F20004C4F202042369C7
:1035E80043F00103236135804FF40050FFF77EFE5E
:1035F800226941F6FE73C0F2000302EA0303236165
:1036080070BD00BF30B583B005460C464FF00003CF
:1036180001934FF40050FFF769FE042833D142F2BA
:103628000003C4F202031A6942F001021A61A3B24C
:103638002B804FF40050FFF759FE042817D105F1ED
:1036480002050195019B4FEA14441C804FF4005079
:10365800FFF74CFE42F20002C4F20202116941F681
:10366800FE73C0F2000301EA030313610BE042F2A8
:103678000002C4F20202116941F6FE73C0F20003AF
:1036880001EA0303136103B030BD00BF10B5FFF7B3
:10369800AFFD00280CBFA52400244FF43020FFF70D
:1036A80025FE042851D142F20003C4F2020340F27D
:1036B8002312C4F267529A6048F6AB12CCF6EF5266
:1036C8009A601A6942F020021A611A6942F04002AF
:1036D8001A614FF43020FFF709FE042827D142F27F
:1036E8000003C4F20203196941F6DF72C0F2000256
:1036F80001EA02021A611A6942F010021A614FF6D1
:103708000003C1F6FF731C804FF40050FFF7EEFD75
:1037180005281AD042F20002C4F20202116941F6E9
:10372800EF73C0F2000301EA030313610DE00528FB
:103738000BD042F20002C4F20202116941F6EF73A3
:10374800C0F2000301EA0303136110BD10B54FF482
:103758003020FFF7CBFD042817D142F20004C4F251
:103768000204236943F004032361236943F04003FF
:1037780023614FF43020FFF7B9FD226941F6FB734E
:10378800C0F2000302EA0303236110BD38B5054601
:103798004FF43020FFF7AAFD042818D142F20004A4
:1037A800C4F20204236943F00203236165612369BB
:1037B80043F0400323614FF43020FFF797FD22695F
:1037C80041F6FD73C0F2000302EA0303236138BD2A
:1037D80010B50446FFF76AFD231E18BF0123012810
:1037E80014BF002303F001036BB1FFF75FFD14F171
:1037F800FF340CBF00230123012814BF002303F06A
:103808000103002BF1D1002C08BF052010BD00BF1B
:1038180010B54FF43020FFF7DBFF042817D142F230
:103828000004C4F20204236943F0040323612369FA
:1038380043F0400323614FF43020FFF7C9FF2269AA
:1038480041F6FB73C0F2000302EA0303236110BDD3
:10385800034628B943F2DB014FF02042116005E02E
:1038680043F2D2014FF0204242F8201003F1010048
:103878006FF070414FF0204242F8201040F20412DD
:10388800CAF2000242F82310704700BF10280ED178
:1038980040F26003CAF200034FF018021A604FF0BA
:1038A80040025A604FF0FC329A60DA600DE040F254
:1038B8008003CAF200034FF018021A604FF040026A
:1038C8005A604FF0FC329A60DA60704740F2A00309
:1038D800CAF200034FF018021A604FF000025A6053
:1038E8004FF0FC329A60DA601A61704730B40268AF
:1038F8008368C16A456843EA0505C46845EA040562
:10390800046945EA0405446945EA0405846945EA09
:103918000405C46945EA0405046A45EA0405446ADD
:1039280045EA0405846A45EA040545EA0105046B8D
:1039380045EA04054FF0204444F82250082B01BF03
:10394800234653F8224044F0400443F8224002F151
:10395800010C436B9D691C6845EA04045D6844EAF0
:1039680005149D6844EA0524DD6844EA05441D6998
:1039780044EA05545B6944EA03644FF0204343F882
:103988002C40B1F5804F17D1836B9869196840EACC
:103998000101586841EA0011986841EA0021186954
:1039A80041EA00515B6941EA036140F20413CAF23B
:1039B800000343F8221007E040F20413CAF20003A0
:1039C8006FF0704143F8221030BC704730B444683F
:1039D800836844EA030444F00804C36844EA03041F
:1039E800036944EA0304436944EA4324836944EAD3
:1039F8004334C3695A689D684FEA054545EA02257C
:103A08001A6845EA0205DB6845EA0365036A5968EE
:103A18009A684FEA024242EA0122196842EA010220
:103A2800DB6842EA03620368102B01BF40F26003BF
:103A3800CAF200031C609D600FBFDA6040F2800389
:103A4800CAF200031C601CBF9D60DA6030BC70477E
:103A580010B4026842F01002436842EA43228368C5
:103A680042EA433240F2A003CAF200031A60C26875
:103A7800546891684FEA014141EA0421146841EA17
:103A88000401D26841EA02629A6002695468916846
:103A98004FEA014141EA0421146841EA0401D2686D
:103AA80041EA0262DA604269506891684FEA01416E
:103AB80041EA0021106841EA0001D26841EA026245
:103AC8001A6110BC704700BF10B44FF000030360C8
:103AD8004FF0020242608360C36003614361836107
:103AE800C36103624FF4805242624FF40052826213
:103AF800C3620363416B4FF00F020A60416B4A6077
:103B0800446B4FF0FF01A160446BE260446B22619B
:103B1800446B6261446BA361846B2260846B626056
:103B2800846BA160816BCA60816B0A61816B4A6199
:103B3800826B936110BC70474FF0100303604FF025
:103B4800000343608360C360036143618361C269AA
:103B58004FF0FC031360C2695360C2699360C26985
:103B6800D360026A1360026A5360026A9360026A51
:103B7800D36070474FF00003036043608360C268FE
:103B88004FF0FC031360C2685360C2689360C26858
:103B9800D360026913600269536002699360026925
:103BA800D360426913604269536042699360426915
:103BB800D360704741B14FF0204353F8202042F0C2
:103BC800010243F820200BE04FF0204252F8201069
:103BD8004FF6FE73C0F20F0301EA030342F82030E8
:103BE800704700BFA1B1102801BF40F26003CAF2BC
:103BF80000031A6842F004020FBF1A6040F2800303
:103C0800CAF200031A681CBF42F004021A601AE0E4
:103C180010280CD140F26002CAF2000211684FF677
:103C2800FB73C0F20F0301EA030313600BE040F2D9
:103C38008002CAF2000211684FF6FB73C0F20F034C
:103C480001EA03031360704740B140F2A003CAF2CF
:103C580000031A6842F004021A600BE040F2A00266
:103C6800CAF2000211684FF6FB73C0F20F0301EAB3
:103C780003031360704700BFA1B1102801BF40F2D1
:103C88006003CAF200031A6842F040020FBF1A60CC
:103C980040F28003CAF200031A681CBF42F04002D7
:103CA8001A601AE010280CD140F26002CAF2000231
:103CB80011684FF6BF73C0F20F0301EA03031360E4
:103CC8000BE040F28002CAF2000211684FF6BF739F
:103CD800C0F20F0301EA030313607047102803BF03
:103CE80040F26003CAF20003586940F280031CBF27
:103CF800CAF2000358697047F2B1102808D140F29F
:103D08006003CAF200035A6841EA0201596033E0CD
:103D1800B0F5807F01BF40F28003CAF200035A6801
:103D280011430FBF596040F2A003CAF200035A685A
:103D38001CBF114359601FE0102808D140F26003EE
:103D4800CAF200035A6822EA0101596014E0B0F58A
:103D5800807F01BF40F28003CAF200035A6822EA5A
:103D680001010FBF596040F2A003CAF200035A686C
:103D78001CBF22EA01015960704700BF102805D115
:103D880040F26003CAF200035B680DE0B0F5807F83
:103D980003BF40F28003CAF200035B6840F2A0034D
:103DA8001CBFCAF200035B680B420CBF0020012055
:103DB800704700BF102808D140F26003CAF2000320
:103DC8005A6822EA0101596014E0B0F5807F01BF0A
:103DD80040F28003CAF200035A6822EA01010FBFC9
:103DE800596040F2A003CAF200035A681CBF22EAD5
:103DF80001015960704700BF102805D140F26003E7
:103E0800CAF200035B680DE0B0F5807F03BF40F2A3
:103E18008003CAF200035B6840F2A0031CBFCAF229
:103E280000035B680B420CBF0020012013EAD1019C
:103E38000CBF002000F00100704700BF10280AD115
:103E480040F26003CAF200035A686FEAD10101EA3E
:103E58000201596017E0B0F5807F0AD140F2800373
:103E6800CAF200035A686FEAD10101EA02015960F7
:103E780009E040F2A003CAF200035A686FEAD101D0
:103E880001EA0201596070472DE9F005CB7803F08B
:103E98000F0C13F0100F1CBF8B784CEA030C0B7837
:103EA80023B307684FF000034FF001054FF00F08E8
:103EB80005FA03F20C8802EA0404944211D14FEA8D
:103EC800830608FA06FA27EA0A070CFA06F647EA0A
:103ED8000607CE78282E08BF446102D0482E08BFB6
:103EE800026103F10103082BE2D107600B88FF2B65
:103EF80026D947684FF000034FF001054FF00F082F
:103F080003F1080205FA02F20C8802EA040494425A
:103F180011D14FEA830608FA06FA27EA0A070CFACB
:103F280006F647EA0607CE78282E08BF4461CC7803
:103F3800482C08BF026103F10103082BE0D1476058
:103F4800BDE8F005704700BF4FF0FF3303804FF026
:103F5800020383704FF00403C370704783681942EB
:103F68000CBF002001207047806880B2704700BFF6
:103F7800C36819420CBF002001207047C06880B296
:103F8800704700BF01617047416170470AB1016124
:103F980000E04161704700BFC160704741F4803361
:103FA80083618161836183698369704710B440F2DA
:103FB8000002C4F2010214684FF68073C0F20003D5
:103FC80004EA030341EA001141EA0303136010BC49
:103FD800704700BF40F21C03C4F2202318607047EA
:103FE80030B484460028BDBF40F20003C4F2010388
:103FF800DA6940F20003A4BFC4F201035A6884B22C
:1040080000F44013B3F5401F0AD122F0706240F269
:104018000003C4F201035D6825F070655D6013E07C
:1040280010F4801F1FBFC0F30343032505FA03F3F1
:104038009A4311BF42F07062430D1B0104FA03F367
:1040480004BF9A4342F0706239B14FEA50504FEAC8
:10405800001004FA00F442EA0402BCF1000FBDBFEC
:1040680040F20003C4F20103DA6140F20003A4BF86
:10407800C4F201035A6030BC704700BF30B401F08D
:1040880003024FEA82024FEA910140F20003C4F2B0
:10409800010301F1020153F821504FF00F0404FA13
:1040A80002F425EA040443F8214053F8214000FAB9
:1040B80002F242EA040443F8214030BC704700BFD2
:1040C80040F2DC03C4F220231860704708B54FF0B3
:1040D8000100014600F036FD4FF001004FF00001ED
:1040E80000F030FD08BD00BF08B540F60003C4F27B
:1040F800010398420CD14FF004004FF0010100F089
:1041080021FD4FF004004FF0000100F01BFD70E0AE
:1041180040F60043C4F2010398420CD14FF0080066
:104128004FF0010100F00EFD4FF008004FF00001C4
:1041380000F008FD5DE041F20003C4F2010398427B
:104148000CD14FF010004FF0010100F0FBFC4FF0D4
:1041580010004FF0000100F0F5FC4AE041F2004386
:10416800C4F2010398420CD14FF020004FF0010136
:1041780000F0E8FC4FF020004FF0000100F0E2FCF6
:1041880037E041F60003C4F2010398420CD14FF026
:1041980040004FF0010100F0D5FC4FF040004FF017
:1041A800000100F0CFFC24E041F60043C4F2010313
:1041B80098420CD14FF080004FF0010100F0C2FC92
:1041C8004FF080004FF0000100F0BCFC11E042F21B
:1041D8000003C4F2010398420BD14FF480704FF0F2
:1041E800010100F0AFFC4FF480704FF0000100F0C7
:1041F800A9FC08BD41F2883303604FF000038380B7
:104208004BF6FF72C280038143814FF48043838160
:10421800704700BF29B103889BB243F001030380B4
:1042280007E0038823F001034FEA03434FEA1343EF
:104238000380704729B183889BB243F4006383806D
:1042480007E0838823F400634FEA03434FEA1343EC
:104258008380704729B183889BB243F4805383805D
:1042680007E0838823F480534FEA03434FEA13435C
:104278008380704729B103889BB243F4807303801D
:1042880007E0038823F480734FEA03434FEA13439C
:104298000380704729B103889BB243F400730380FD
:1042A80007E0038823F400734FEA03434FEA1343FC
:1042B8000380704729B103889BB243F4806303806D
:1042C80007E0038823F480634FEA03434FEA13436C
:1042D80003807047838901F0FE0123F0FE0341EA61
:1042E80003039BB28381704729B183899BB243F052
:1042F8000103838107E0838923F001034FEA034325
:104308004FEA13438381704729B103889BB243F076
:104318004003038007E0038823F040034FEA034388
:104328004FEA1343038070472AB183889BB241EA5E
:104338000301818004E083889BB223EA0101818024
:10434800704700BF01827047008AC0B2704700BF43
:1043580012B141F0010101E001F0FE010182704754
:1043680082B04FF0000301930190019B0B4401932D
:10437800019B188880B202B0704700BF39B103882A
:104388006FEA43436FEA53439BB2038005E0038817
:104398004FEA43434FEA534303807047B1F5006F38
:1043A80001BF03889BB243F4006303801FBF0388E7
:1043B80023F400631B041B0C18BF0380704700BF65
:1043C800B1F5005F01BF03889BB243F4005303803B
:1043D8001FBF038823F400531B041B0C18BF038062
:1043E800704700BF29B103889BB243F48053038010
:1043F80007E0038823F480534FEA03434FEA13434B
:1044080003807047B1F5006F01BF03889BB243F486
:10441800006303801FBF038823F400631B041B0C85
:1044280018BF0380704700BF29B103889BB243F0CF
:104438002003038007E0038823F020034FEA0343A7
:104448004FEA134303807047008BC0F3072070477F
:1044580029B103889BB243F01003038007E0038867
:1044680023F010034FEA03434FEA134303807047D6
:1044780029B903889BB243F08003038007E00388CF
:1044880023F080034FEA03434FEA13430380704746
:10449800B1F5804F1FBF838B23F480431B041B0C93
:1044A80011BF8383838B9BB243F4804308BF83830C
:1044B800704700BF838A9BB2008B43EA004000EA42
:1044C800010020F07F40814214BF00200120704786
:1044D800838A9BB2008B43EA004020F07F407047FC
:1044E80082B04FF000030193009300904FEA1173DC
:1044F800019321F07F41019B23B1009B03F1140339
:10450800009305E04FEA1141009B03F11803009363
:10451800009B1B6819420CBF0020012002B07047A5
:104528006FEA010189B28182704700BF83889AB21D
:10453800838A9BB20B4208BF002006D001F0E061DD
:1045480012EA11410CBF0020012070476FEA0101F7
:1045580089B28182704700BF70B586B004460D46A7
:10456800868826F03F064FEA06464FEA164601A817
:1045780000F038FA03984DF68363C4F21B33A3FBAB
:1045880000234FEA934141EA0606A680238823F0D8
:1045980001034FEA03434FEA134323802A6848F292
:1045A800A063C0F201039A420BD84FEA4202B0FB63
:1045B800F2F080B201F101012184032898BF0420A0
:1045C8002DE0B5F806C04BF6FF739C4503BF02EB20
:1045D8004202B0FBF2F080B202EB82021FBF02EB94
:1045E8008202B0FBF2F080B240F480404FEA005300
:1045F8004FEA13530BB940F0010040F400404FF468
:10460800967202FB01F144F6D352C1F2620282FBB8
:1046180001324FEA921202F1010292B22284A0837F
:1046280023889BB243F001032380238823F480630B
:1046380023F00A034FEA03434FEA13436989AA8820
:1046480041EA020243EA02039BB223802A89AB892A
:1046580042EA03039BB2238106B070BD08B545F258
:104668000043C4F2000398420CD14FF400104FF0FD
:10467800010100F07BFA4FF400104FF0000100F048
:1046880075FA0BE04FF480004FF0010100F06EFA6C
:104698004FF480004FF0000100F068FA08BD00BF39
:1046A80043F20003C4F200031860704743F20003AA
:1046B800C4F200035860704743F20003C4F20003D9
:1046C8009860704743F20003C4F200034AF6AA2236
:1046D8001A60704743F20003C4F200034CF6CC4260
:1046E8001A60704743F20003C4F20003DB68184203
:1046F8000CBF00200120704740F22003C4F20E23B3
:104708001860704740F21003C4F20E231860704717
:1047180047F20003C4F200031A6822F0E00240EAFC
:1047280002021A60704700BF40F2A003C4F20E23D1
:104738001860704747F20003C4F200031A6822F0B9
:10474800030240EA02021A604EF60053CEF200035A
:104758001A6942F004021A61012901D130BF00E050
:1047680020BF4EF60053CEF200031A6922F004026D
:104778001A61704747F20003C4F200031A6842F056
:1047880004021A601A6842F002021A604EF60053D8
:10479800CEF200031A6942F004021A6130BF704772
:1047A80047F20003C4F200035B6818420CBF002004
:1047B8000120704747F20003C4F200031A6842EA76
:1047C80080021A60704700BF08B54FF080504FF064
:1047D800010100F0CBF94FF080504FF0000100F0DC
:1047E800C5F908BD41F20003C4F202031A6842F099
:1047F80001021A60596840F20002CFF6FF0201EA8E
:1048080002025A601A6822F0847222F480321A6016
:104818001A6822F480221A605A6822F4FE025A604A
:104828004FF41F029A60704741F20003C4F202037A
:104838001A6822F480321A601A6822F480221A60F8
:10484800B0F5803F03D0B0F5802F11D108E041F2D8
:104858000003C4F202031A6842F480321A6007E0C7
:1048680041F20003C4F202031A6842F4A0221A605B
:10487800704700BF41F20003C4F202031A6822F035
:10488800F80242EAC0021A60704700BF40F2000313
:10489800C4F242231860704741F20003C4F20203D5
:1048A8005A6822F47C1240EA020242EA01025A6083
:1048B800704700BF40F26003C4F24223186070479B
:1048C80041F20003C4F202035A6822F0030240EAEC
:1048D80002025A60704700BF41F20003C4F20203AB
:1048E800586800F00C00704741F20003C4F202035C
:1048F8005A6822F0F00240EA02025A60704700BF8C
:1049080041F20003C4F202035A6822F4E06240EA6A
:1049180002025A60704700BF41F20003C4F202036A
:104928005A6822F4605242EAC0025A60704700BFD7
:1049380041B141F20903C4F202031A7840EA0200C5
:10494800187007E041F20903C4F202031A7822EA58
:1049580000001870704700BF40F2D803C4F2422329
:104968001860704741F20003C4F202035A6822F447
:10497800404240EA02025A60704700BF41F22003F9
:10498800C4F202034FF000021A701A70012802D014
:1049980004280FD107E041F22003C4F202034FF0CC
:1049A80001021A7006E041F22003C4F202034FF03C
:1049B80005021A70704700BF40F28043C4F24223D8
:1049C8001860704741F20003C4F202031A6A40EA11
:1049D80002021A62704700BF40F23C43C4F242230D
:1049E8001860704710B441F20003C4F202035B6818
:1049F80003F00C03042B02BF41F20023C0F27A0338
:104A0800036039D0082B07D0002B30D141F20023A6
:104A1800C0F27A0303602FE041F20003C4F20203FC
:104A28005A685B68C2F3834202F1020213F4803FC2
:104A380007D140F60013C0F23D0303FB02F2026007
:104A48001AE041F20003C4F202035B6813F4003F6A
:104A58001FBF40F60013C0F23D035A43026001BF76
:104A680041F20023C0F27A035A43026004E041F2A3
:104A78000023C0F27A03036041F20002C4F202028A
:104A88005168C1F3031140F20023C2F20003595CDC
:104A9800046824FA01F141605468C4F3022C13F845
:104AA8000C4021FA04F484605468C4F3C22C13F84F
:104AB8000CC021FA0CF1C1605268C2F38132134470
:104AC8001B7CB1FBF3F1016110BC704741B141F2AD
:104AD8000003C4F202035A6940EA0200586107E081
:104AE80041F20003C4F202035A6922EA0000586145
:104AF800704700BF41B141F20003C4F202039A6952
:104B080040EA0200986107E041F20003C4F20203A0
:104B18009A6922EA00009861704700BF41B141F2EA
:104B28000003C4F20203DA6940EA0200D86107E030
:104B380041F20003C4F20203DA6922EA0000D861F4
:104B4800704700BF41B141F20003C4F20203DA68C2
:104B580040EA0200D86007E041F20003C4F2020311
:104B6800DA6822EA0000D860704700BF41B141F21C
:104B78000003C4F202031A6940EA0200186107E060
:104B880041F20003C4F202031A6922EA0000186124
:104B9800704700BF40F24043C4F242231860704798
:104BA80040F24C03C4F242231860704741F20703F5
:104BB800C4F20203187070474FEA5013012B05D155
:104BC80041F20003C4F202031B680CE0022B03BF8E
:104BD80041F20003C4F202031B6A41F200031CBF46
:104BE800C4F202035B6A00F01F0023FA00F000F031
:104BF8000100704710B582B04FF0000301934FF0E9
:104C080031042046FFF7D8FF019B03F1010301930C
:104C1800019BB3F5A06F01D00028F2D04FF031000E
:104C2800FFF7CAFF003818BF012002B010BD00BF4F
:104C380041F20003C4F202035A6A42F080725A62D7
:104C4800704700BF41F20003C4F202039B68184298
:104C58000CBF00200120704741F20A03C4F202038E
:104C68001870704749B142F60003C4F200031A886D
:104C780092B240EA0200188008E042F60003C4F24B
:104C880000031A8892B222EA00001880704700BF19
:104C980042F60003C4F200039A8892B242F010026E
:104CA8009A80704742F60002C4F20002938823F00B
:104CB80010034FEA03434FEA13439380704700BF42
:104CC80042F60003C4F200039A8B92B2188B42EAB0
:104CD8000040704710B50446FFF7DAFF4FEA144268
:104CE80042F60003C4F200031A83A4B29C83FFF7C0
:104CF800D9FF10BD10B50446FFF7CAFFC4F303423D
:104D080042F60003C4F200031A81A4B29C81FFF7A3
:104D1800C9FF10BD10B50446FFF7BAFF4FEA1442A9
:104D280042F60003C4F200031A84A4B29C84FFF77D
:104D3800B9FF10BD42F60003C4F20003188A00F060
:104D48000F009B8A9BB243EA0040704742F600027C
:104D5800C4F20002938813F0200FFBD0704700BF05
:104D680042F60002C4F20002938823F008034FEAD7
:104D780003434FEA1343938042F60002C4F2000251
:104D8800938813F0080FFBD0704700BF42F600036A
:104D9800C4F200039B8818420CBF00200120704712
:104DA80042F60003C4F200039A8892B222EA000293
:104DB8009A80704742F60003C4F200039A8892B2C0
:104DC8001B88184208BF002006D000EA020212F031
:104DD800FF0F0CBF00200120704700BF42F6000300
:104DE800C4F200039A8892B222EA00029A807047BD
:104DF80048F20003C4F201034FF000021A605A603F
:104E08009A60DA605A629A62DA6240F2FF71C0F21E
:104E1800C0019963DA63704710B448F20003C4F222
:104E280001035A684468816844EA0101C46841EA98
:104E38000401046841EA0401046941EA040122F416
:104E4800FC4222F0FF0241EA0202017D42EA01022D
:104E58005A6010BC704700BF4FF000030375036031
:104E680043608360C3600361704700BF40F2A003E2
:104E7800C4F230231860704748F20003C4F20103FB
:104E88001A6822F003021A601A6840EA02021A60DD
:104E9800704700BF48F20003C4F20103186800F02D
:104EA8000300704741B148F20003C4F20103DA6B12
:104EB80040EA0200D86307E048F20003C4F20103A5
:104EC800DA6B22EA0000D863704700BF40F28C53C7
:104ED800C4F230231860704710B4026848F2000327
:104EE800C4F201039A60DA6822F4FE6222F00F022B
:104EF8008468416844EA0101C46841EA0401006920
:104F080041EA000141EA0202DA6010BC704700BFC2
:104F18004FF00003036043608360C3600361704720
:104F280048F20003C4F201031869C0B2704700BF19
:104F380082B04FF00003019348F21403C4F2010356
:104F480003440193019B186802B0704710B40268CB
:104F580048F20003C4F201035A6242689A62D96AAD
:104F680021F0F701C468826844EA0202046942EA4F
:104F78000402406942EA000242EA0102DA6210BC15
:104F8800704700BF4FF0FF3303604FF000034360EA
:104F98008360C36003614361704700BF48F2000348
:104FA800C4F20103186B704748F20003C4F201030E
:104FB800D3F88000704700BF48F20003C4F2010331
:104FC800C3F88000704700BF48F20003C4F2010331
:104FD800986C704740F2A053C4F2302318607047B1
:104FE80040F2A453C4F230231860704740F2A8532B
:104FF800C4F230231860704740F2AC53C4F2302337
:105008001860704740F2AC13C4F230231860704740
:1050180040F2B013C4F230231860704780F00100EA
:1050280000F0010040F2B413C4F230231860704756
:1050380040F2B813C4F230231860704748F20003F6
:10504800C4F201035B6B18420CBF002001207047BB
:1050580048F20003C4F201039863704748F2000362
:10506800C4F201035B6B18420CBF0020012070479B
:1050780048F20003C4F2010398637047028802F4FF
:105088004152B1F802C00B884CEA0303B1F804C0DE
:1050980043EA0C03B1F806C043EA0C03B1F808C0B0
:1050A80043EA0C03B1F80AC043EA0C03B1F80CC098
:1050B80043EA0C03B1F80EC043EA0C0342EA0303C7
:1050C8009BB20380838B23F400634FEA03434FEAC8
:1050D800134383830B8A0382704700BF4FF000039A
:1050E800038043808380C380038143818381C3819C
:1050F8004FF00703038270474FF00003038043809B
:105108008380C3804FF0020282608381704700BFB2
:1051180029B103889BB243F04003038007E003886A
:1051280023F040034FEA03434FEA134303807047D9
:1051380029B1838B9BB243F48063838307E0838B1D
:1051480023F480634FEA03434FEA13438383704792
:105158004FEA11114FF0010303FA01F39BB22AB190
:10516800828892B243EA0203838004E0828892B282
:1051780022EA0303838070472AB183889BB241EAFD
:105188000301818004E083889BB223EA01018180C6
:10519800704700BF81817047808980B2704700BF27
:1051A8004FF6FF6399421FBF03889BB243F4807395
:1051B800038001BF038823F480731B041B0C08BF02
:1051C8000380704729B183889BB243F0040383802E
:1051D80007E0838823F004034FEA03434FEA1343AD
:1051E80083807047038823F400634FEA03434FEA40
:1051F8001343038003889BB241EA0303038070478B
:1052080003889BB243F480530380704729B1038815
:105218009BB243F40053038007E0038823F4005350
:105228004FEA03434FEA134303807047012919BF2C
:10523800008B80B2808A80B2704700BF008A80B23B
:10524800704700BFB1F5804F01BF03889BB243F49C
:10525800804303801FBF038823F480431B041B0C77
:1052680018BF0380704700BF038919420CBF002094
:10527800012070476FEA010189B20181704700BFC0
:1052880083881FFA83FC028992B201F00F034FF062
:10529800010000FA03F31A4208BF00200AD04FEABF
:1052A80011114FF0010303FA01F11CEA010F0CBFC1
:1052B80000200120704700BF01F00F014FF00103EB
:1052C80003FA01F36FEA03039BB20381704700BF3F
:1052D800F0B587B005460C46838B23F47A6323F038
:1052E8001F034FEA03434FEA134383834FF002013E
:1052F8000184868BB6B2A368022B08BF00223CD07B
:10530800A788002F0CBF0127022701A8FFF76AFB17
:10531800019AE388B3F5007F0CD14FEA122202EB21
:1053280082024FEA4202A368B2FBF3F202F10502DD
:1053380092B20DE04FEA4717B2FBF7F707EB870782
:105348004FEA4702A368B2FBF3F202F1050292B2F8
:105358004CF6CD43CCF6CC43A3FB02134FEAD30360
:1053680003F001024FEA5303A3F1020189B2FD29B8
:1053780087BF00220223120292B243EA0203E288A4
:1053880043EA02039BB22B84238846EA030343F4CF
:105398000063628843EA0203A28843EA0203A289FF
:1053A80043EA02039BB2AB8307B0F0BD08B543F2F2
:1053B8000003C4F2010398420CD14FF480504FF01F
:1053C8000101FFF7BFFB4FF480504FF00001FFF7DA
:1053D800B9FB24E043F60003C4F2000398420CD161
:1053E8004FF480404FF00101FFF7C0FB4FF48040BD
:1053F8004FF00001FFF7BAFB11E043F60043C4F297
:10540800000398420BD14FF400404FF00101FFF721
:10541800ADFB4FF400404FF00001FFF7A7FB08BDBC
:1054280010B4028892B242F60043C4F2010343F278
:10543800004CC4F2010C604514BF4FF0000C4FF053
:10544800010C984214BF64464CF001040CBB40F2B6
:105458000043C4F20003984214BF00230123B0F1B3
:10546800804F08BF43F001039BB940F60003C4F224
:10547800000340F6004CC4F2000C604514BF4FF026
:10548800000C4FF0010C984214BF63464CF0010326
:1054980043B14FF68F73C0F2000302EA03034A8850
:1054A80043EA020241F20003C4F2000341F2004C55
:1054B800C4F2000CB0EB0C0C18BF4FF0010C984272
:1054C8000CBF00230CF0010343B14FF6FF43C0F2B9
:1054D800000302EA0303CA8843EA020202808B88B7
:1054E80083850B880385BCB944F20003C4F2010329
:1054F80044F20042C4F20102904214BF0022012289
:10550800984214BF134642F001032BB944F6000336
:10551800C4F20103984201D10B7A03864FF00103CC
:10552800838210BC704700BF70B4038C23F0010362
:105538004FEA03434FEA13430384028C83889BB2E8
:10554800068BB6B20D8822F002024FEA02424FEAF9
:1055580012424C88B1F808C044EA0C0C1FFA8CFCC3
:105568004CEA020242F6004CC4F2010C43F2004439
:10557800C4F20104A04214BF00240124604508BFFE
:1055880044F00104B4B944F2000CC4F2010C44F232
:105598000044C4F20104A04214BF00240124604561
:1055A80008BF44F001042CB944F6000CC4F2010C05
:1055B80060451FD14FF6F77CC0F2000C02EA0C0CD4
:1055C8004A894CEA020C4FF6FB72C0F200020CEA60
:1055D8000202B1F804C042EA0C024FF6FF4CC0F2D6
:1055E800000C03EA0C0CCC898B8944EA03039BB2B8
:1055F80043EA0C0383804FF68C73C0F2000306EA7B
:10560800030343EA05030383CB888386028470BCC3
:10561800704700BFF0B4038C23F010034FEA034334
:105628004FEA13430384028CB0F804C01FFA8CFCC1
:10563800078BBFB20E8822F020024FEA02424FEADF
:1056480012420B8942EA03124B8842EA031292B2D1
:1056580042F60044C4F2010443F20045C4F20105D5
:10566800A84214BF00250125A04214BF2C4645F0CE
:10567800010414B34FF67F73C0F2000302EA030378
:105688004A8943EA02134FF6BF72C0F2000203EAE6
:1056980002028B8842EA031292B24FF2FF34C0F240
:1056A80000040CEA0404B1F80CC044EA8C04B1F814
:1056B8000EC044EA8C0C1FFA8CFCA0F804C048F613
:1056C800FF43C0F2000307EA030343EA06239BB241
:1056D8000383CB8803870284F0BC7047F0B4038C43
:1056E80023F480734FEA03434FEA13430384028C85
:1056F800B0F804C01FFA8CFC878BBFB20E8822F466
:1057080000724FEA02424FEA12420B8942EA032230
:105718004B8842EA032292B242F60044C4F20104E2
:1057280043F20045C4F20105A84214BF0025012533
:10573800A04214BF2C4645F0010414B34FF2FF7386
:10574800C0F2000302EA03034A8943EA02234FF640
:10575800FF32C0F2000203EA02028B8842EA032207
:1057680092B24CF6FF74C0F200040CEA0404B1F8DB
:105778000CC044EA0C14B1F80EC044EA0C1C1FFA21
:105788008CFCA0F804C04FF68C73C0F2000307EA43
:10579800030343EA06038383CB8883870284F0BC30
:1057A800704700BF2DE9F005038C23F480534FEABE
:1057B80003434FEA13430384B0F820801FFA88F8A4
:1057C8008588ADB2B0F81CA01FFA8AFA0B880F8939
:1057D8004E8842F6004CC4F2010C43F20044C4F275
:1057E8000104A04214BF00240124604508BF44F00E
:1057F800010454B14BF6FF7CC0F2000C05EA0C0C16
:105808008D894CEA851C1FFA8CF5858048F6FF4285
:10581800C0F200020AEA020242EA032292B282833A
:10582800CB88A0F840304DF6FF73C0F2000308EAB9
:10583800030343EA073343EA06339BB20384BDE814
:10584800F00570474A880B8842EA03038A8843EACE
:105858000203CA8843EA02030A8943EA02034A891F
:1058680043EA02038A8943EA02039BB2A0F8443060
:10587800704700BF4FF0FF3383804FF00003038071
:10588800C3804380037270474FF000030380438056
:105898008380C380038143818381C381704700BFB4
:1058A8004FF00003038043804FF001028280C380E1
:1058B800038170474FF00003038043808380C380D7
:1058C800038143818381704729B103889BB243F0E8
:1058D8000103038007E0038823F001034FEA034331
:1058E8004FEA13430380704749B1B0F844306FEA78
:1058F80043436FEA53439BB2A0F8443007E0B0F843
:1059080044304FEA43434FEA5343A0F844307047CA
:105918002AB183899BB241EA0301818104E083892A
:105928009BB223EA01018181704700BF81827047E1
:1059380042EA0102A0F84820704700BF2AB18389D3
:105948009BB241EA0301818104E083899BB223EA87
:1059580001018181704700BF038923F007034FEAE3
:1059680003434FEA13430381704700BFB0F808C0F0
:105978005FFA8CFC41EA0C0C4CEA020C4CEA032C52
:105988001FFA8CFCA0F808C0704700BF10B5044689
:10599800FFF7ECFF23899BB243F48043238110BDBA
:1059A80010B50446FFF7E2FF238923F077034FEA97
:1059B80003434FEA134343F07703238110BD00BF2D
:1059C80001858282704700BF038823F070034FEA85
:1059D80003434FEA134341EA03030380704700BFC0
:1059E800038923F070034FEA03434FEA134341EA64
:1059F80003030381704700BF10B50446FFF7F0FFAB
:105A080023899BB243F00703238110BD30B4B0F85B
:105A180008C0058B048C2CF0070C4FEA0C4C4FEA9D
:105A28001C4C41EA0C0125F4407525F003054FEAAA
:105A380005454FEA154545F4807545F0010524F004
:105A480022044FEA04444FEA144444EA020444EAB4
:105A58000314A4B201810583048430BC704700BFDD
:105A6800038B23F070034FEA03434FEA134341EAE1
:105A780003030383704700BF038B23F4E0434FEA1B
:105A880003434FEA134343EA01239BB2038370475E
:105A9800838B23F070034FEA03434FEA134341EA31
:105AA80003038383704700BF838B23F4E0434FEAEB
:105AB80003434FEA134343EA01239BB283837047AE
:105AC80029B103889BB243F08003038007E0038871
